:100000000C942A000C9447000C9447000C94470071
:100010000C9447000C9447000C9447000C94470044
:100020000C9447000C9447000C9447000C94470034
:100030000C9447000C9447000C9447000C94470024
:100040000C9447000C9447000C9447000C94470014
:100050000C94470011241FBECFE5D8E0DEBFCDBF12
:1000600010E0A0E6B0E0E6EEF1E002C005900D92EF
:10007000A036B107D9F710E0A0E6B0E001C01D92AC
:10008000A036B107E1F70E9449000C94F1000C94EE
:100090000000DF92EF92FF920F931F93CF93DF93B5
:1000A0001ABA8FE087BB01E029E0D22E95E0E92E55
:1000B0008AE0F82E18E029B330E089B3E82FF0E0A9
:1000C000E074F07089B3682F70E06071707089B36C
:1000D000482F50E04072507089B390E08870907063
:1000E000E901C078D07027FD24C0009711F5309742
:1000F000A1F46115710589F44115510551F4A2303F
:10010000B10511F4F8BAD7CFA130B10511F4E8BAAE
:10011000D2CF4032510509F462C0E034F10549F410
:100120006115710531F440325105A1F041155105B9
:1001300089F0C038D10581F40097A1F5E034F105CC
:1001400089F56115710571F54032510519F04115B8
:10015000510541F508BB32C0209721F58830910543
:1001600079F43097F9F46031710519F44032510592
:10017000B9F06031710539F54115510521F510C00F
:10018000009781F4309771F46031710519F44115CD
:10019000510531F06031710529F44032510511F4F7
:1001A00018BB1AC0C038D10561F4892BC1F4EF2BFC
:1001B000B1F4672BA1F4452B91F4E8BAA1E0B0E0CB
:1001C0007ACFCD2B61F4089751F4EF2B41F4672BD4
:1001D00031F4452B21F4F8BAA2E0B0E06CCFD8BAE4
:0601E0006ACFF894FFCF86
:00000001FF
