:100000000C942A000C943C000C943C000C943C0092
:100010000C943C000C943C000C943C000C943C0070
:100020000C943C000C943C000C943C000C943C0060
:100030000C943C000C943C000C943C000C943C0050
:100040000C943C000C943C000C943C000C943C0040
:100050000C943C0011241FBECFE5D8E0DEBFCDBF1D
:1000600020E0A0E6B0E001C01D92A637B207E1F79C
:100070000E9415010C943B020C94000086B380741E
:1000800090E090936700809366008034910529F496
:1000900010926F0010926E0006C081E090E0909385
:1000A0006F0080936E0086B3807290E0909365003D
:1000B00080936400809729F4109261001092600090
:1000C00006C081E090E0909361008093600086B369
:1000D000807190E09093690080936800409729F4C4
:1000E00010926B0010926A0006C081E090E090933D
:1000F0006B0080936A0086B3887090E090936300F1
:100100008093620081E090E090936D0080936C009A
:1001100086B3847090E09093750080937400049788
:1001200029F41092710010927000089581E090E01F
:10013000909371008093700008958FB5826C8FBD8D
:100140008EB589618EBD80E29EE497BD86BD08951F
:1001500080EA96E89BBD8ABD99BD88BD88E382BBD5
:1001600081E090E09093730080937200089580EA9C
:1001700096E89BBD8ABD99BD88BD81E382BB82E0C4
:1001800090E09093730080937200089580E49DE066
:100190009BBD8ABD99BD88BD89E382BB83E090E0A9
:1001A0009093730080937200089580E49DE09BBD5E
:1001B0008ABD99BD88BD85E382BB84E090E09093C1
:1001C000730080937200089580E49DE09BBD8ABD1A
:1001D00099BD88BD8AE382BB85E090E0909373006F
:1001E00080937200089580EA96E89BBD8ABD80E402
:1001F0009DE099BD88BD89E382BB83E090E0909348
:10020000730080937200089580E49DE09BBD8ABDD9
:1002100080EA96E899BD88BD8AE382BB83E090E0DE
:100220009093730080937200089517BA8FE381BB97
:100230000E943E000E949D0080916E0090916F0090
:10024000009709F050C08091600090916100892B67
:1002500009F077C080916A0090916B00019709F0D6
:10026000E9C080916C0090916D00892B09F0E2C08B
:100270008091700090917100892B09F0DBC00E9481
:10028000C600D6CF80916C0090916D00892B09F04B
:10029000D8C08091700090917100892B09F0D1C075
:1002A00080917200909173008230910519F004974B
:1002B00009F0C7C00E94D500BBCF80916C0090911F
:1002C0006D00892BF1F58091700090917100892B60
:1002D000C1F580917200909173008B7F019789F531
:1002E0000E94E400A5CF8130910509F081C02091E2
:1002F0006000309161002230310530F440916A0095
:1003000050916B00452B61F02130310509F073C02D
:1003100020916A0030916B002130310509F06BC0EB
:1003200020916C0030916D00232B09F061C0209169
:10033000700030917100232B09F05AC00E94B70061
:1003400077CF80916000909161000097D9F420915F
:100350006A0030916B00232B09F07BC020916C0068
:1003600030916D002230310508F073C07BC02091C0
:100370006C0030916D0021303105F9F473C00E949A
:10038000A80056CF81309105C1F480916A00909108
:100390006B00029708F04CCF80916C0090916D003B
:1003A000892B09F045CF8091700090917100892BC5
:1003B00009F03ECF0E94F3003BCF892B09F038CFE4
:1003C00080916A0090916B00029708F031CF809184
:1003D0006C0090916D00019709F02ACF8091700018
:1003E00090917100892B09F023CF0E94040120CF46
:1003F000019709F01DCF80916000909161000197F5
:1004000009F016CF80916A0090916B00019709F076
:100410000FCF80916C0090916D00019709F008CF8B
:100420008091700090917100019709F001CF0E94B6
:10043000C600FECE80916A0090916B00892B09F472
:1004400021CF80916A0090916B00892B09F435CF00
:1004500078CF20916A0030916B002130310509F08E
:10046000ACCF85CF209170003091710021303105E3
:0A04700009F088CF84CFF894FFCF85
:00000001FF
